{
  "_format": "hh-sol-artifact-1",
  "contractName": "EnStarProject",
  "sourceName": "contracts/EnStarProject.sol",
  "abi": [
    {
      "anonymous": false,
      "inputs": [
        {
          "indexed": true,
          "internalType": "address",
          "name": "from",
          "type": "address"
        },
        {
          "indexed": false,
          "internalType": "uint256",
          "name": "timestamp",
          "type": "uint256"
        },
        {
          "indexed": false,
          "internalType": "string",
          "name": "message",
          "type": "string"
        }
      ],
      "name": "NewStar",
      "type": "event"
    },
    {
      "inputs": [],
      "name": "getAllAccounts",
      "outputs": [
        {
          "internalType": "address[]",
          "name": "",
          "type": "address[]"
        }
      ],
      "stateMutability": "view",
      "type": "function"
    },
    {
      "inputs": [],
      "name": "getAllStars",
      "outputs": [
        {
          "components": [
            {
              "internalType": "address",
              "name": "account",
              "type": "address"
            },
            {
              "internalType": "string",
              "name": "mesage",
              "type": "string"
            },
            {
              "internalType": "uint256",
              "name": "timestamp",
              "type": "uint256"
            }
          ],
          "internalType": "struct EnStarProject.Star[]",
          "name": "",
          "type": "tuple[]"
        }
      ],
      "stateMutability": "view",
      "type": "function"
    },
    {
      "inputs": [],
      "name": "getTotalStars",
      "outputs": [
        {
          "internalType": "uint256",
          "name": "",
          "type": "uint256"
        }
      ],
      "stateMutability": "view",
      "type": "function"
    },
    {
      "inputs": [],
      "name": "removeAccount",
      "outputs": [],
      "stateMutability": "nonpayable",
      "type": "function"
    },
    {
      "inputs": [
        {
          "internalType": "string",
          "name": "_message",
          "type": "string"
        }
      ],
      "name": "star",
      "outputs": [],
      "stateMutability": "nonpayable",
      "type": "function"
    }
  ],
  "bytecode": "0x608060405234801561001057600080fd5b50610dbb806100206000396000f3fe608060405234801561001057600080fd5b50600436106100575760003560e01c806308e93d0a1461005c5780630ac6f5711461007a57806318e60dd7146100965780636e9cd2bc146100b457806375beca08146100d2575b600080fd5b6100646100dc565b60405161007191906109af565b60405180910390f35b610094600480360381019061008f9190610780565b61016a565b005b61009e6103d8565b6040516100ab91906109f3565b60405180910390f35b6100bc6103e1565b6040516100c991906109d1565b60405180910390f35b6100da610532565b005b6060600180548060200260200160405190810160405280929190818152602001828054801561016057602002820191906000526020600020905b8160009054906101000a900473ffffffffffffffffffffffffffffffffffffffff1673ffffffffffffffffffffffffffffffffffffffff1681526020019060010190808311610116575b5050505050905090565b600160008082825461017c9190610b33565b92505081905550600260405180606001604052803373ffffffffffffffffffffffffffffffffffffffff16815260200183815260200142815250908060018154018082558091505060019003906000526020600020906003020160009091909190915060008201518160000160006101000a81548173ffffffffffffffffffffffffffffffffffffffff021916908373ffffffffffffffffffffffffffffffffffffffff1602179055506020820151816001019080519060200190610242929190610675565b5060408201518160020155505060006001905060005b600180549050811015610319573373ffffffffffffffffffffffffffffffffffffffff16600182815481106102b6577f4e487b7100000000000000000000000000000000000000000000000000000000600052603260045260246000fd5b9060005260206000200160009054906101000a900473ffffffffffffffffffffffffffffffffffffffff1673ffffffffffffffffffffffffffffffffffffffff1614156103065760009150610319565b808061031190610c9e565b915050610258565b508015610384576001339080600181540180825580915050600190039060005260206000200160009091909190916101000a81548173ffffffffffffffffffffffffffffffffffffffff021916908373ffffffffffffffffffffffffffffffffffffffff1602179055505b3373ffffffffffffffffffffffffffffffffffffffff167f6863c292df906411c35af226e1ebe6a4119147b8de837e11c889e8d40b040a4042846040516103cc929190610a0e565b60405180910390a25050565b60008054905090565b60606002805480602002602001604051908101604052809291908181526020016000905b8282101561052957838290600052602060002090600302016040518060600160405290816000820160009054906101000a900473ffffffffffffffffffffffffffffffffffffffff1673ffffffffffffffffffffffffffffffffffffffff1673ffffffffffffffffffffffffffffffffffffffff16815260200160018201805461048e90610c3b565b80601f01602080910402602001604051908101604052809291908181526020018280546104ba90610c3b565b80156105075780601f106104dc57610100808354040283529160200191610507565b820191906000526020600020905b8154815290600101906020018083116104ea57829003601f168201915b5050505050815260200160028201548152505081526020019060010190610405565b50505050905090565b6000600190505b600180549050811015610659573373ffffffffffffffffffffffffffffffffffffffff1660018281548110610597577f4e487b7100000000000000000000000000000000000000000000000000000000600052603260045260246000fd5b9060005260206000200160009054906101000a900473ffffffffffffffffffffffffffffffffffffffff1673ffffffffffffffffffffffffffffffffffffffff1614156106465760018181548110610618577f4e487b7100000000000000000000000000000000000000000000000000000000600052603260045260246000fd5b9060005260206000200160006101000a81549073ffffffffffffffffffffffffffffffffffffffff02191690555b808061065190610c9e565b915050610539565b50600160008082825461066c9190610b89565b92505081905550565b82805461068190610c3b565b90600052602060002090601f0160209004810192826106a357600085556106ea565b82601f106106bc57805160ff19168380011785556106ea565b828001600101855582156106ea579182015b828111156106e95782518255916020019190600101906106ce565b5b5090506106f791906106fb565b5090565b5b808211156107145760008160009055506001016106fc565b5090565b600061072b61072684610a63565b610a3e565b90508281526020810184848401111561074357600080fd5b61074e848285610bf9565b509392505050565b600082601f83011261076757600080fd5b8135610777848260208601610718565b91505092915050565b60006020828403121561079257600080fd5b600082013567ffffffffffffffff8111156107ac57600080fd5b6107b884828501610756565b91505092915050565b60006107cd83836107ed565b60208301905092915050565b60006107e58383610941565b905092915050565b6107f681610bbd565b82525050565b600061080782610ab4565b6108118185610aef565b935061081c83610a94565b8060005b8381101561084d57815161083488826107c1565b975061083f83610ad5565b925050600181019050610820565b5085935050505092915050565b600061086582610abf565b61086f8185610b00565b93508360208202850161088185610aa4565b8060005b858110156108bd578484038952815161089e85826107d9565b94506108a983610ae2565b925060208a01995050600181019050610885565b50829750879550505050505092915050565b60006108da82610aca565b6108e48185610b11565b93506108f4818560208601610c08565b6108fd81610d74565b840191505092915050565b600061091382610aca565b61091d8185610b22565b935061092d818560208601610c08565b61093681610d74565b840191505092915050565b600060608301600083015161095960008601826107ed565b506020830151848203602086015261097182826108cf565b91505060408301516109866040860182610991565b508091505092915050565b61099a81610bef565b82525050565b6109a981610bef565b82525050565b600060208201905081810360008301526109c981846107fc565b905092915050565b600060208201905081810360008301526109eb818461085a565b905092915050565b6000602082019050610a0860008301846109a0565b92915050565b6000604082019050610a2360008301856109a0565b8181036020830152610a358184610908565b90509392505050565b6000610a48610a59565b9050610a548282610c6d565b919050565b6000604051905090565b600067ffffffffffffffff821115610a7e57610a7d610d45565b5b610a8782610d74565b9050602081019050919050565b6000819050602082019050919050565b6000819050602082019050919050565b600081519050919050565b600081519050919050565b600081519050919050565b6000602082019050919050565b6000602082019050919050565b600082825260208201905092915050565b600082825260208201905092915050565b600082825260208201905092915050565b600082825260208201905092915050565b6000610b3e82610bef565b9150610b4983610bef565b9250827fffffffffffffffffffffffffffffffffffffffffffffffffffffffffffffffff03821115610b7e57610b7d610ce7565b5b828201905092915050565b6000610b9482610bef565b9150610b9f83610bef565b925082821015610bb257610bb1610ce7565b5b828203905092915050565b6000610bc882610bcf565b9050919050565b600073ffffffffffffffffffffffffffffffffffffffff82169050919050565b6000819050919050565b82818337600083830152505050565b60005b83811015610c26578082015181840152602081019050610c0b565b83811115610c35576000848401525b50505050565b60006002820490506001821680610c5357607f821691505b60208210811415610c6757610c66610d16565b5b50919050565b610c7682610d74565b810181811067ffffffffffffffff82111715610c9557610c94610d45565b5b80604052505050565b6000610ca982610bef565b91507fffffffffffffffffffffffffffffffffffffffffffffffffffffffffffffffff821415610cdc57610cdb610ce7565b5b600182019050919050565b7f4e487b7100000000000000000000000000000000000000000000000000000000600052601160045260246000fd5b7f4e487b7100000000000000000000000000000000000000000000000000000000600052602260045260246000fd5b7f4e487b7100000000000000000000000000000000000000000000000000000000600052604160045260246000fd5b6000601f19601f830116905091905056fea2646970667358221220b48a94af1141f3895068904094946aadbff07437880efe2ebb342d91e63768f764736f6c63430008040033",
  "linkReferences": {},
  "deployedLinkReferences": {}
}